{
  "_format": "hh-sol-artifact-1",
  "contractName": "CyberqueensNFT",
  "sourceName": "contracts/CyberqueensNFT.sol",
  "abi": [
    {
      "inputs": [],
      "stateMutability": "payable",
      "type": "constructor"
    },
    {
      "anonymous": false,
      "inputs": [
        {
          "indexed": true,
          "internalType": "address",
          "name": "owner",
          "type": "address"
        },
        {
          "indexed": true,
          "internalType": "address",
          "name": "approved",
          "type": "address"
        },
        {
          "indexed": true,
          "internalType": "uint256",
          "name": "tokenId",
          "type": "uint256"
        }
      ],
      "name": "Approval",
      "type": "event"
    },
    {
      "anonymous": false,
      "inputs": [
        {
          "indexed": true,
          "internalType": "address",
          "name": "owner",
          "type": "address"
        },
        {
          "indexed": true,
          "internalType": "address",
          "name": "operator",
          "type": "address"
        },
        {
          "indexed": false,
          "internalType": "bool",
          "name": "approved",
          "type": "bool"
        }
      ],
      "name": "ApprovalForAll",
      "type": "event"
    },
    {
      "anonymous": false,
      "inputs": [
        {
          "indexed": true,
          "internalType": "address",
          "name": "previousOwner",
          "type": "address"
        },
        {
          "indexed": true,
          "internalType": "address",
          "name": "newOwner",
          "type": "address"
        }
      ],
      "name": "OwnershipTransferred",
      "type": "event"
    },
    {
      "anonymous": false,
      "inputs": [
        {
          "indexed": true,
          "internalType": "address",
          "name": "from",
          "type": "address"
        },
        {
          "indexed": true,
          "internalType": "address",
          "name": "to",
          "type": "address"
        },
        {
          "indexed": true,
          "internalType": "uint256",
          "name": "tokenId",
          "type": "uint256"
        }
      ],
      "name": "Transfer",
      "type": "event"
    },
    {
      "inputs": [],
      "name": "addressC",
      "outputs": [
        {
          "internalType": "address",
          "name": "",
          "type": "address"
        }
      ],
      "stateMutability": "view",
      "type": "function"
    },
    {
      "inputs": [
        {
          "internalType": "address",
          "name": "to",
          "type": "address"
        },
        {
          "internalType": "uint256",
          "name": "tokenId",
          "type": "uint256"
        }
      ],
      "name": "approve",
      "outputs": [],
      "stateMutability": "nonpayable",
      "type": "function"
    },
    {
      "inputs": [],
      "name": "balance",
      "outputs": [
        {
          "internalType": "uint256",
          "name": "",
          "type": "uint256"
        }
      ],
      "stateMutability": "view",
      "type": "function"
    },
    {
      "inputs": [
        {
          "internalType": "address",
          "name": "owner",
          "type": "address"
        }
      ],
      "name": "balanceOf",
      "outputs": [
        {
          "internalType": "uint256",
          "name": "",
          "type": "uint256"
        }
      ],
      "stateMutability": "view",
      "type": "function"
    },
    {
      "inputs": [
        {
          "internalType": "uint256",
          "name": "amount",
          "type": "uint256"
        }
      ],
      "name": "deployContract",
      "outputs": [],
      "stateMutability": "payable",
      "type": "function"
    },
    {
      "inputs": [
        {
          "internalType": "uint256",
          "name": "tokenId",
          "type": "uint256"
        }
      ],
      "name": "getApproved",
      "outputs": [
        {
          "internalType": "address",
          "name": "",
          "type": "address"
        }
      ],
      "stateMutability": "view",
      "type": "function"
    },
    {
      "inputs": [
        {
          "internalType": "address",
          "name": "owner",
          "type": "address"
        },
        {
          "internalType": "address",
          "name": "operator",
          "type": "address"
        }
      ],
      "name": "isApprovedForAll",
      "outputs": [
        {
          "internalType": "bool",
          "name": "",
          "type": "bool"
        }
      ],
      "stateMutability": "view",
      "type": "function"
    },
    {
      "inputs": [],
      "name": "isPiblicMintEnabled",
      "outputs": [
        {
          "internalType": "bool",
          "name": "",
          "type": "bool"
        }
      ],
      "stateMutability": "view",
      "type": "function"
    },
    {
      "inputs": [],
      "name": "maxMintAmount",
      "outputs": [
        {
          "internalType": "uint256",
          "name": "",
          "type": "uint256"
        }
      ],
      "stateMutability": "view",
      "type": "function"
    },
    {
      "inputs": [],
      "name": "maxSupply",
      "outputs": [
        {
          "internalType": "uint256",
          "name": "",
          "type": "uint256"
        }
      ],
      "stateMutability": "view",
      "type": "function"
    },
    {
      "inputs": [
        {
          "internalType": "address",
          "name": "_to",
          "type": "address"
        },
        {
          "internalType": "uint256",
          "name": "_mintAmount",
          "type": "uint256"
        }
      ],
      "name": "mint",
      "outputs": [],
      "stateMutability": "payable",
      "type": "function"
    },
    {
      "inputs": [],
      "name": "mintPrice",
      "outputs": [
        {
          "internalType": "uint256",
          "name": "",
          "type": "uint256"
        }
      ],
      "stateMutability": "view",
      "type": "function"
    },
    {
      "inputs": [],
      "name": "name",
      "outputs": [
        {
          "internalType": "string",
          "name": "",
          "type": "string"
        }
      ],
      "stateMutability": "view",
      "type": "function"
    },
    {
      "inputs": [],
      "name": "owner",
      "outputs": [
        {
          "internalType": "address",
          "name": "",
          "type": "address"
        }
      ],
      "stateMutability": "view",
      "type": "function"
    },
    {
      "inputs": [
        {
          "internalType": "uint256",
          "name": "tokenId",
          "type": "uint256"
        }
      ],
      "name": "ownerOf",
      "outputs": [
        {
          "internalType": "address",
          "name": "",
          "type": "address"
        }
      ],
      "stateMutability": "view",
      "type": "function"
    },
    {
      "inputs": [],
      "name": "renounceOwnership",
      "outputs": [],
      "stateMutability": "nonpayable",
      "type": "function"
    },
    {
      "inputs": [
        {
          "internalType": "address",
          "name": "from",
          "type": "address"
        },
        {
          "internalType": "address",
          "name": "to",
          "type": "address"
        },
        {
          "internalType": "uint256",
          "name": "tokenId",
          "type": "uint256"
        }
      ],
      "name": "safeTransferFrom",
      "outputs": [],
      "stateMutability": "nonpayable",
      "type": "function"
    },
    {
      "inputs": [
        {
          "internalType": "address",
          "name": "from",
          "type": "address"
        },
        {
          "internalType": "address",
          "name": "to",
          "type": "address"
        },
        {
          "internalType": "uint256",
          "name": "tokenId",
          "type": "uint256"
        },
        {
          "internalType": "bytes",
          "name": "data",
          "type": "bytes"
        }
      ],
      "name": "safeTransferFrom",
      "outputs": [],
      "stateMutability": "nonpayable",
      "type": "function"
    },
    {
      "inputs": [
        {
          "internalType": "address",
          "name": "operator",
          "type": "address"
        },
        {
          "internalType": "bool",
          "name": "approved",
          "type": "bool"
        }
      ],
      "name": "setApprovalForAll",
      "outputs": [],
      "stateMutability": "nonpayable",
      "type": "function"
    },
    {
      "inputs": [
        {
          "internalType": "string",
          "name": "_newBaseURI",
          "type": "string"
        }
      ],
      "name": "setBaseURI",
      "outputs": [],
      "stateMutability": "nonpayable",
      "type": "function"
    },
    {
      "inputs": [
        {
          "internalType": "uint256",
          "name": "_newMintPrice",
          "type": "uint256"
        }
      ],
      "name": "setMintPrice",
      "outputs": [],
      "stateMutability": "nonpayable",
      "type": "function"
    },
    {
      "inputs": [
        {
          "internalType": "bool",
          "name": "_state",
          "type": "bool"
        }
      ],
      "name": "setPublicMint",
      "outputs": [],
      "stateMutability": "nonpayable",
      "type": "function"
    },
    {
      "inputs": [
        {
          "internalType": "uint256",
          "name": "_newmaxMintAmount",
          "type": "uint256"
        }
      ],
      "name": "setmaxMintAmount",
      "outputs": [],
      "stateMutability": "nonpayable",
      "type": "function"
    },
    {
      "inputs": [
        {
          "internalType": "bytes4",
          "name": "interfaceId",
          "type": "bytes4"
        }
      ],
      "name": "supportsInterface",
      "outputs": [
        {
          "internalType": "bool",
          "name": "",
          "type": "bool"
        }
      ],
      "stateMutability": "view",
      "type": "function"
    },
    {
      "inputs": [],
      "name": "symbol",
      "outputs": [
        {
          "internalType": "string",
          "name": "",
          "type": "string"
        }
      ],
      "stateMutability": "view",
      "type": "function"
    },
    {
      "inputs": [
        {
          "internalType": "uint256",
          "name": "_tokenId",
          "type": "uint256"
        }
      ],
      "name": "tokenURI",
      "outputs": [
        {
          "internalType": "string",
          "name": "",
          "type": "string"
        }
      ],
      "stateMutability": "view",
      "type": "function"
    },
    {
      "inputs": [],
      "name": "totalSupply",
      "outputs": [
        {
          "internalType": "uint256",
          "name": "",
          "type": "uint256"
        }
      ],
      "stateMutability": "view",
      "type": "function"
    },
    {
      "inputs": [
        {
          "internalType": "address",
          "name": "from",
          "type": "address"
        },
        {
          "internalType": "address",
          "name": "to",
          "type": "address"
        },
        {
          "internalType": "uint256",
          "name": "tokenId",
          "type": "uint256"
        }
      ],
      "name": "transferFrom",
      "outputs": [],
      "stateMutability": "nonpayable",
      "type": "function"
    },
    {
      "inputs": [
        {
          "internalType": "address",
          "name": "newOwner",
          "type": "address"
        }
      ],
      "name": "transferOwnership",
      "outputs": [],
      "stateMutability": "nonpayable",
      "type": "function"
    },
    {
      "inputs": [],
      "name": "withdraw",
      "outputs": [],
      "stateMutability": "nonpayable",
      "type": "function"
    }
  ],
  "bytecode": "0x608060405273d608b0d7221ef8cdb888c94e2c1875b415baf455600c60016101000a81548173ffffffffffffffffffffffffffffffffffffffff021916908373ffffffffffffffffffffffffffffffffffffffff1602179055506040518060400160405280600e81526020017f4379626572717565656e734e46540000000000000000000000000000000000008152506040518060400160405280600281526020017f43510000000000000000000000000000000000000000000000000000000000008152508160009080519060200190620000dd92919062000226565b508060019080519060200190620000f692919062000226565b505050620001196200010d6200015860201b60201c565b6200016060201b60201c565b6804c53ecdc18a6000006008819055506000600981905550614e20600a81905550600954600a546200014c9190620002d6565b600b81905550620003af565b600033905090565b6000600660009054906101000a900473ffffffffffffffffffffffffffffffffffffffff16905081600660006101000a81548173ffffffffffffffffffffffffffffffffffffffff021916908373ffffffffffffffffffffffffffffffffffffffff1602179055508173ffffffffffffffffffffffffffffffffffffffff168173ffffffffffffffffffffffffffffffffffffffff167f8be0079c531659141344cd1fd0a4f28419497f9722a3daafe3b4186f6b6457e060405160405180910390a35050565b82805462000234906200031b565b90600052602060002090601f016020900481019282620002585760008555620002a4565b82601f106200027357805160ff1916838001178555620002a4565b82800160010185558215620002a4579182015b82811115620002a357825182559160200191906001019062000286565b5b509050620002b39190620002b7565b5090565b5b80821115620002d2576000816000905550600101620002b8565b5090565b6000620002e38262000311565b9150620002f08362000311565b92508282101562000306576200030562000351565b5b828203905092915050565b6000819050919050565b600060028204905060018216806200033457607f821691505b602082108114156200034b576200034a62000380565b5b50919050565b7f4e487b7100000000000000000000000000000000000000000000000000000000600052601160045260246000fd5b7f4e487b7100000000000000000000000000000000000000000000000000000000600052602260045260246000fd5b61367580620003bf6000396000f3fe6080604052600436106101cd5760003560e01c806370a08231116100f7578063b88d4fde11610095578063e985e9c511610064578063e985e9c514610634578063f2fde38b14610671578063f3d8c33e1461069a578063f4a0a528146106c5576101cd565b8063b88d4fde14610578578063c79fc609146105a1578063c87b56dd146105cc578063d5abeb0114610609576101cd565b80638da5cb5b116100d15780638da5cb5b146104ce57806395d89b41146104f9578063a22cb46514610524578063b69ef8a81461054d576101cd565b806370a0823114610451578063715018a61461048e5780637f00c7a6146104a5576101cd565b8063239c70ae1161016f57806342842e0e1161013e57806342842e0e1461039757806355f804b3146103c05780636352211e146103e95780636817c76c14610426576101cd565b8063239c70ae1461031057806323b872dd1461033b5780633ccfd60b1461036457806340c10f191461037b576101cd565b8063095ea7b3116101ab578063095ea7b3146102775780630e2d56cf146102a057806318160ddd146102c95780631cf41a81146102f4576101cd565b806301ffc9a7146101d257806306fdde031461020f578063081812fc1461023a575b600080fd5b3480156101de57600080fd5b506101f960048036038101906101f491906123f2565b6106ee565b60405161020691906129aa565b60405180910390f35b34801561021b57600080fd5b506102246107d0565b60405161023191906129c5565b60405180910390f35b34801561024657600080fd5b50610261600480360381019061025c9190612485565b610862565b60405161026e9190612943565b60405180910390f35b34801561028357600080fd5b5061029e6004803603810190610299919061238d565b6108a8565b005b3480156102ac57600080fd5b506102c760048036038101906102c291906123c9565b6109c0565b005b3480156102d557600080fd5b506102de6109e5565b6040516102eb9190612c67565b60405180910390f35b61030e60048036038101906103099190612485565b6109eb565b005b34801561031c57600080fd5b50610325610a6b565b6040516103329190612c67565b60405180910390f35b34801561034757600080fd5b50610362600480360381019061035d9190612287565b610a71565b005b34801561037057600080fd5b50610379610ad1565b005b6103956004803603810190610390919061238d565b610b88565b005b3480156103a357600080fd5b506103be60048036038101906103b99190612287565b610d90565b005b3480156103cc57600080fd5b506103e760048036038101906103e29190612444565b610db0565b005b3480156103f557600080fd5b50610410600480360381019061040b9190612485565b610dd2565b60405161041d9190612943565b60405180910390f35b34801561043257600080fd5b5061043b610e84565b6040516104489190612c67565b60405180910390f35b34801561045d57600080fd5b5061047860048036038101906104739190612222565b610e8a565b6040516104859190612c67565b60405180910390f35b34801561049a57600080fd5b506104a3610f42565b005b3480156104b157600080fd5b506104cc60048036038101906104c79190612485565b610f56565b005b3480156104da57600080fd5b506104e3610f68565b6040516104f09190612943565b60405180910390f35b34801561050557600080fd5b5061050e610f92565b60405161051b91906129c5565b60405180910390f35b34801561053057600080fd5b5061054b60048036038101906105469190612351565b611024565b005b34801561055957600080fd5b5061056261103a565b60405161056f9190612c67565b60405180910390f35b34801561058457600080fd5b5061059f600480360381019061059a91906122d6565b611042565b005b3480156105ad57600080fd5b506105b66110a4565b6040516105c39190612943565b60405180910390f35b3480156105d857600080fd5b506105f360048036038101906105ee9190612485565b6110ac565b60405161060091906129c5565b60405180910390f35b34801561061557600080fd5b5061061e611154565b60405161062b9190612c67565b60405180910390f35b34801561064057600080fd5b5061065b6004803603810190610656919061224b565b61115a565b60405161066891906129aa565b60405180910390f35b34801561067d57600080fd5b5061069860048036038101906106939190612222565b6111ee565b005b3480156106a657600080fd5b506106af611272565b6040516106bc91906129aa565b60405180910390f35b3480156106d157600080fd5b506106ec60048036038101906106e79190612485565b611285565b005b60007f80ac58cd000000000000000000000000000000000000000000000000000000007bffffffffffffffffffffffffffffffffffffffffffffffffffffffff1916827bffffffffffffffffffffffffffffffffffffffffffffffffffffffff191614806107b957507f5b5e139f000000000000000000000000000000000000000000000000000000007bffffffffffffffffffffffffffffffffffffffffffffffffffffffff1916827bffffffffffffffffffffffffffffffffffffffffffffffffffffffff1916145b806107c957506107c882611297565b5b9050919050565b6060600080546107df90612f37565b80601f016020809104026020016040519081016040528092919081815260200182805461080b90612f37565b80156108585780601f1061082d57610100808354040283529160200191610858565b820191906000526020600020905b81548152906001019060200180831161083b57829003601f168201915b5050505050905090565b600061086d82611301565b6004600083815260200190815260200160002060009054906101000a900473ffffffffffffffffffffffffffffffffffffffff169050919050565b60006108b382610dd2565b90508073ffffffffffffffffffffffffffffffffffffffff168373ffffffffffffffffffffffffffffffffffffffff161415610924576040517f08c379a000000000000000000000000000000000000000000000000000000000815260040161091b90612c07565b60405180910390fd5b8073ffffffffffffffffffffffffffffffffffffffff1661094361134c565b73ffffffffffffffffffffffffffffffffffffffff16148061097257506109718161096c61134c565b61115a565b5b6109b1576040517f08c379a00000000000000000000000000000000000000000000000000000000081526004016109a890612b67565b60405180910390fd5b6109bb8383611354565b505050565b6109c861140d565b80600c60006101000a81548160ff02191690831515021790555050565b60095481565b6109f361140d565b8034146109ff57600080fd5b600c60019054906101000a900473ffffffffffffffffffffffffffffffffffffffff1673ffffffffffffffffffffffffffffffffffffffff166108fc479081150290604051600060405180830381858888f19350505050158015610a67573d6000803e3d6000fd5b5050565b600b5481565b610a82610a7c61134c565b8261148b565b610ac1576040517f08c379a0000000000000000000000000000000000000000000000000000000008152600401610ab890612c47565b60405180910390fd5b610acc838383611520565b505050565b610ad961140d565b60003373ffffffffffffffffffffffffffffffffffffffff1647604051610aff9061292e565b60006040518083038185875af1925050503d8060008114610b3c576040519150601f19603f3d011682016040523d82523d6000602084013e610b41565b606091505b5050905080610b85576040517f08c379a0000000000000000000000000000000000000000000000000000000008152600401610b7c90612a67565b60405180910390fd5b50565b600c60009054906101000a900460ff16610bd7576040517f08c379a0000000000000000000000000000000000000000000000000000000008152600401610bce90612ae7565b60405180910390fd5b60008111610c1a576040517f08c379a0000000000000000000000000000000000000000000000000000000008152600401610c1190612b27565b60405180910390fd5b600b54811115610c5f576040517f08c379a0000000000000000000000000000000000000000000000000000000008152600401610c5690612ba7565b60405180910390fd5b600a5481600954610c709190612d6c565b1115610cb1576040517f08c379a0000000000000000000000000000000000000000000000000000000008152600401610ca890612b47565b60405180910390fd5b610cb9610f68565b73ffffffffffffffffffffffffffffffffffffffff163373ffffffffffffffffffffffffffffffffffffffff1614610d3b5780600854610cf99190612df3565b3414610d3a576040517f08c379a0000000000000000000000000000000000000000000000000000000008152600401610d3190612a87565b60405180910390fd5b5b6000600190505b818111610d8b57610d608382600954610d5b9190612d6c565b611787565b60096000815480929190610d7390612f9a565b91905055508080610d8390612f9a565b915050610d42565b505050565b610dab83838360405180602001604052806000815250611042565b505050565b610db861140d565b8060079080519060200190610dce929190612046565b5050565b6000806002600084815260200190815260200160002060009054906101000a900473ffffffffffffffffffffffffffffffffffffffff169050600073ffffffffffffffffffffffffffffffffffffffff168173ffffffffffffffffffffffffffffffffffffffff161415610e7b576040517f08c379a0000000000000000000000000000000000000000000000000000000008152600401610e7290612be7565b60405180910390fd5b80915050919050565b60085481565b60008073ffffffffffffffffffffffffffffffffffffffff168273ffffffffffffffffffffffffffffffffffffffff161415610efb576040517f08c379a0000000000000000000000000000000000000000000000000000000008152600401610ef290612b07565b60405180910390fd5b600360008373ffffffffffffffffffffffffffffffffffffffff1673ffffffffffffffffffffffffffffffffffffffff168152602001908152602001600020549050919050565b610f4a61140d565b610f5460006117a5565b565b610f5e61140d565b80600b8190555050565b6000600660009054906101000a900473ffffffffffffffffffffffffffffffffffffffff16905090565b606060018054610fa190612f37565b80601f0160208091040260200160405190810160405280929190818152602001828054610fcd90612f37565b801561101a5780601f10610fef5761010080835404028352916020019161101a565b820191906000526020600020905b815481529060010190602001808311610ffd57829003601f168201915b5050505050905090565b61103661102f61134c565b838361186b565b5050565b600047905090565b61105361104d61134c565b8361148b565b611092576040517f08c379a000000000000000000000000000000000000000000000000000000000815260040161108990612c47565b60405180910390fd5b61109e848484846119d8565b50505050565b600030905090565b60606110b782611a34565b6110f6576040517f08c379a00000000000000000000000000000000000000000000000000000000081526004016110ed90612c27565b60405180910390fd5b60006007805461110590612f37565b905011611121576040518060200160405280600081525061114d565b600761112c83611aa0565b60405160200161113d9291906128ff565b6040516020818303038152906040525b9050919050565b600a5481565b6000600560008473ffffffffffffffffffffffffffffffffffffffff1673ffffffffffffffffffffffffffffffffffffffff16815260200190815260200160002060008373ffffffffffffffffffffffffffffffffffffffff1673ffffffffffffffffffffffffffffffffffffffff16815260200190815260200160002060009054906101000a900460ff16905092915050565b6111f661140d565b600073ffffffffffffffffffffffffffffffffffffffff168173ffffffffffffffffffffffffffffffffffffffff161415611266576040517f08c379a000000000000000000000000000000000000000000000000000000000815260040161125d90612a07565b60405180910390fd5b61126f816117a5565b50565b600c60009054906101000a900460ff1681565b61128d61140d565b8060088190555050565b60007f01ffc9a7000000000000000000000000000000000000000000000000000000007bffffffffffffffffffffffffffffffffffffffffffffffffffffffff1916827bffffffffffffffffffffffffffffffffffffffffffffffffffffffff1916149050919050565b61130a81611a34565b611349576040517f08c379a000000000000000000000000000000000000000000000000000000000815260040161134090612be7565b60405180910390fd5b50565b600033905090565b816004600083815260200190815260200160002060006101000a81548173ffffffffffffffffffffffffffffffffffffffff021916908373ffffffffffffffffffffffffffffffffffffffff160217905550808273ffffffffffffffffffffffffffffffffffffffff166113c783610dd2565b73ffffffffffffffffffffffffffffffffffffffff167f8c5be1e5ebec7d5bd14f71427d1e84f3dd0314c0f7b2291e5b200ac8c7c3b92560405160405180910390a45050565b61141561134c565b73ffffffffffffffffffffffffffffffffffffffff16611433610f68565b73ffffffffffffffffffffffffffffffffffffffff1614611489576040517f08c379a000000000000000000000000000000000000000000000000000000000815260040161148090612bc7565b60405180910390fd5b565b60008061149783610dd2565b90508073ffffffffffffffffffffffffffffffffffffffff168473ffffffffffffffffffffffffffffffffffffffff1614806114d957506114d8818561115a565b5b8061151757508373ffffffffffffffffffffffffffffffffffffffff166114ff84610862565b73ffffffffffffffffffffffffffffffffffffffff16145b91505092915050565b8273ffffffffffffffffffffffffffffffffffffffff1661154082610dd2565b73ffffffffffffffffffffffffffffffffffffffff1614611596576040517f08c379a000000000000000000000000000000000000000000000000000000000815260040161158d90612a27565b60405180910390fd5b600073ffffffffffffffffffffffffffffffffffffffff168273ffffffffffffffffffffffffffffffffffffffff161415611606576040517f08c379a00000000000000000000000000000000000000000000000000000000081526004016115fd90612aa7565b60405180910390fd5b611611838383611c4d565b61161c600082611354565b6001600360008573ffffffffffffffffffffffffffffffffffffffff1673ffffffffffffffffffffffffffffffffffffffff168152602001908152602001600020600082825461166c9190612e4d565b925050819055506001600360008473ffffffffffffffffffffffffffffffffffffffff1673ffffffffffffffffffffffffffffffffffffffff16815260200190815260200160002060008282546116c39190612d6c565b92505081905550816002600083815260200190815260200160002060006101000a81548173ffffffffffffffffffffffffffffffffffffffff021916908373ffffffffffffffffffffffffffffffffffffffff160217905550808273ffffffffffffffffffffffffffffffffffffffff168473ffffffffffffffffffffffffffffffffffffffff167fddf252ad1be2c89b69c2b068fc378daa952ba7f163c4a11628f55a4df523b3ef60405160405180910390a4611782838383611c52565b505050565b6117a1828260405180602001604052806000815250611c57565b5050565b6000600660009054906101000a900473ffffffffffffffffffffffffffffffffffffffff16905081600660006101000a81548173ffffffffffffffffffffffffffffffffffffffff021916908373ffffffffffffffffffffffffffffffffffffffff1602179055508173ffffffffffffffffffffffffffffffffffffffff168173ffffffffffffffffffffffffffffffffffffffff167f8be0079c531659141344cd1fd0a4f28419497f9722a3daafe3b4186f6b6457e060405160405180910390a35050565b8173ffffffffffffffffffffffffffffffffffffffff168373ffffffffffffffffffffffffffffffffffffffff1614156118da576040517f08c379a00000000000000000000000000000000000000000000000000000000081526004016118d190612ac7565b60405180910390fd5b80600560008573ffffffffffffffffffffffffffffffffffffffff1673ffffffffffffffffffffffffffffffffffffffff16815260200190815260200160002060008473ffffffffffffffffffffffffffffffffffffffff1673ffffffffffffffffffffffffffffffffffffffff16815260200190815260200160002060006101000a81548160ff0219169083151502179055508173ffffffffffffffffffffffffffffffffffffffff168373ffffffffffffffffffffffffffffffffffffffff167f17307eab39ab6107e8899845ad3d59bd9653f200f220920489ca2b5937696c31836040516119cb91906129aa565b60405180910390a3505050565b6119e3848484611520565b6119ef84848484611cb2565b611a2e576040517f08c379a0000000000000000000000000000000000000000000000000000000008152600401611a25906129e7565b60405180910390fd5b50505050565b60008073ffffffffffffffffffffffffffffffffffffffff166002600084815260200190815260200160002060009054906101000a900473ffffffffffffffffffffffffffffffffffffffff1673ffffffffffffffffffffffffffffffffffffffff1614159050919050565b60606000821415611ae8576040518060400160405280600181526020017f30000000000000000000000000000000000000000000000000000000000000008152509050611c48565b600082905060005b60008214611b1a578080611b0390612f9a565b915050600a82611b139190612dc2565b9150611af0565b60008167ffffffffffffffff811115611b5c577f4e487b7100000000000000000000000000000000000000000000000000000000600052604160045260246000fd5b6040519080825280601f01601f191660200182016040528015611b8e5781602001600182028036833780820191505090505b5090505b60008514611c4157600182611ba79190612e4d565b9150600a85611bb69190612fe3565b6030611bc29190612d6c565b60f81b818381518110611bfe577f4e487b7100000000000000000000000000000000000000000000000000000000600052603260045260246000fd5b60200101907effffffffffffffffffffffffffffffffffffffffffffffffffffffffffffff1916908160001a905350600a85611c3a9190612dc2565b9450611b92565b8093505050505b919050565b505050565b505050565b611c618383611e49565b611c6e6000848484611cb2565b611cad576040517f08c379a0000000000000000000000000000000000000000000000000000000008152600401611ca4906129e7565b60405180910390fd5b505050565b6000611cd38473ffffffffffffffffffffffffffffffffffffffff16612023565b15611e3c578373ffffffffffffffffffffffffffffffffffffffff1663150b7a02611cfc61134c565b8786866040518563ffffffff1660e01b8152600401611d1e949392919061295e565b602060405180830381600087803b158015611d3857600080fd5b505af1925050508015611d6957506040513d601f19601f82011682018060405250810190611d66919061241b565b60015b611dec573d8060008114611d99576040519150601f19603f3d011682016040523d82523d6000602084013e611d9e565b606091505b50600081511415611de4576040517f08c379a0000000000000000000000000000000000000000000000000000000008152600401611ddb906129e7565b60405180910390fd5b805181602001fd5b63150b7a0260e01b7bffffffffffffffffffffffffffffffffffffffffffffffffffffffff1916817bffffffffffffffffffffffffffffffffffffffffffffffffffffffff191614915050611e41565b600190505b949350505050565b600073ffffffffffffffffffffffffffffffffffffffff168273ffffffffffffffffffffffffffffffffffffffff161415611eb9576040517f08c379a0000000000000000000000000000000000000000000000000000000008152600401611eb090612b87565b60405180910390fd5b611ec281611a34565b15611f02576040517f08c379a0000000000000000000000000000000000000000000000000000000008152600401611ef990612a47565b60405180910390fd5b611f0e60008383611c4d565b6001600360008473ffffffffffffffffffffffffffffffffffffffff1673ffffffffffffffffffffffffffffffffffffffff1681526020019081526020016000206000828254611f5e9190612d6c565b92505081905550816002600083815260200190815260200160002060006101000a81548173ffffffffffffffffffffffffffffffffffffffff021916908373ffffffffffffffffffffffffffffffffffffffff160217905550808273ffffffffffffffffffffffffffffffffffffffff16600073ffffffffffffffffffffffffffffffffffffffff167fddf252ad1be2c89b69c2b068fc378daa952ba7f163c4a11628f55a4df523b3ef60405160405180910390a461201f60008383611c52565b5050565b6000808273ffffffffffffffffffffffffffffffffffffffff163b119050919050565b82805461205290612f37565b90600052602060002090601f01602090048101928261207457600085556120bb565b82601f1061208d57805160ff19168380011785556120bb565b828001600101855582156120bb579182015b828111156120ba57825182559160200191906001019061209f565b5b5090506120c891906120cc565b5090565b5b808211156120e55760008160009055506001016120cd565b5090565b60006120fc6120f784612ca7565b612c82565b90508281526020810184848401111561211457600080fd5b61211f848285612ef5565b509392505050565b600061213a61213584612cd8565b612c82565b90508281526020810184848401111561215257600080fd5b61215d848285612ef5565b509392505050565b600081359050612174816135e3565b92915050565b600081359050612189816135fa565b92915050565b60008135905061219e81613611565b92915050565b6000815190506121b381613611565b92915050565b600082601f8301126121ca57600080fd5b81356121da8482602086016120e9565b91505092915050565b600082601f8301126121f457600080fd5b8135612204848260208601612127565b91505092915050565b60008135905061221c81613628565b92915050565b60006020828403121561223457600080fd5b600061224284828501612165565b91505092915050565b6000806040838503121561225e57600080fd5b600061226c85828601612165565b925050602061227d85828601612165565b9150509250929050565b60008060006060848603121561229c57600080fd5b60006122aa86828701612165565b93505060206122bb86828701612165565b92505060406122cc8682870161220d565b9150509250925092565b600080600080608085870312156122ec57600080fd5b60006122fa87828801612165565b945050602061230b87828801612165565b935050604061231c8782880161220d565b925050606085013567ffffffffffffffff81111561233957600080fd5b612345878288016121b9565b91505092959194509250565b6000806040838503121561236457600080fd5b600061237285828601612165565b92505060206123838582860161217a565b9150509250929050565b600080604083850312156123a057600080fd5b60006123ae85828601612165565b92505060206123bf8582860161220d565b9150509250929050565b6000602082840312156123db57600080fd5b60006123e98482850161217a565b91505092915050565b60006020828403121561240457600080fd5b60006124128482850161218f565b91505092915050565b60006020828403121561242d57600080fd5b600061243b848285016121a4565b91505092915050565b60006020828403121561245657600080fd5b600082013567ffffffffffffffff81111561247057600080fd5b61247c848285016121e3565b91505092915050565b60006020828403121561249757600080fd5b60006124a58482850161220d565b91505092915050565b6124b781612e81565b82525050565b6124c681612e93565b82525050565b60006124d782612d1e565b6124e18185612d34565b93506124f1818560208601612f04565b6124fa816130d0565b840191505092915050565b600061251082612d29565b61251a8185612d50565b935061252a818560208601612f04565b612533816130d0565b840191505092915050565b600061254982612d29565b6125538185612d61565b9350612563818560208601612f04565b80840191505092915050565b6000815461257c81612f37565b6125868186612d61565b945060018216600081146125a157600181146125b2576125e5565b60ff198316865281860193506125e5565b6125bb85612d09565b60005b838110156125dd578154818901526001820191506020810190506125be565b838801955050505b50505092915050565b60006125fb603283612d50565b9150612606826130e1565b604082019050919050565b600061261e602683612d50565b915061262982613130565b604082019050919050565b6000612641602583612d50565b915061264c8261317f565b604082019050919050565b6000612664601c83612d50565b915061266f826131ce565b602082019050919050565b6000612687600f83612d50565b9150612692826131f7565b602082019050919050565b60006126aa601883612d50565b91506126b582613220565b602082019050919050565b60006126cd602483612d50565b91506126d882613249565b604082019050919050565b60006126f0601983612d50565b91506126fb82613298565b602082019050919050565b6000612713601a83612d50565b915061271e826132c1565b602082019050919050565b6000612736602983612d50565b9150612741826132ea565b604082019050919050565b6000612759602283612d50565b915061276482613339565b604082019050919050565b600061277c601283612d50565b915061278782613388565b602082019050919050565b600061279f603e83612d50565b91506127aa826133b1565b604082019050919050565b60006127c2602083612d50565b91506127cd82613400565b602082019050919050565b60006127e5600583612d61565b91506127f082613429565b600582019050919050565b6000612808602483612d50565b915061281382613452565b604082019050919050565b600061282b602083612d50565b9150612836826134a1565b602082019050919050565b600061284e601883612d50565b9150612859826134ca565b602082019050919050565b6000612871602183612d50565b915061287c826134f3565b604082019050919050565b6000612894600083612d45565b915061289f82613542565b600082019050919050565b60006128b7602683612d50565b91506128c282613545565b604082019050919050565b60006128da602e83612d50565b91506128e582613594565b604082019050919050565b6128f981612eeb565b82525050565b600061290b828561256f565b9150612917828461253e565b9150612922826127d8565b91508190509392505050565b600061293982612887565b9150819050919050565b600060208201905061295860008301846124ae565b92915050565b600060808201905061297360008301876124ae565b61298060208301866124ae565b61298d60408301856128f0565b818103606083015261299f81846124cc565b905095945050505050565b60006020820190506129bf60008301846124bd565b92915050565b600060208201905081810360008301526129df8184612505565b905092915050565b60006020820190508181036000830152612a00816125ee565b9050919050565b60006020820190508181036000830152612a2081612611565b9050919050565b60006020820190508181036000830152612a4081612634565b9050919050565b60006020820190508181036000830152612a6081612657565b9050919050565b60006020820190508181036000830152612a808161267a565b9050919050565b60006020820190508181036000830152612aa08161269d565b9050919050565b60006020820190508181036000830152612ac0816126c0565b9050919050565b60006020820190508181036000830152612ae0816126e3565b9050919050565b60006020820190508181036000830152612b0081612706565b9050919050565b60006020820190508181036000830152612b2081612729565b9050919050565b60006020820190508181036000830152612b408161274c565b9050919050565b60006020820190508181036000830152612b608161276f565b9050919050565b60006020820190508181036000830152612b8081612792565b9050919050565b60006020820190508181036000830152612ba0816127b5565b9050919050565b60006020820190508181036000830152612bc0816127fb565b9050919050565b60006020820190508181036000830152612be08161281e565b9050919050565b60006020820190508181036000830152612c0081612841565b9050919050565b60006020820190508181036000830152612c2081612864565b9050919050565b60006020820190508181036000830152612c40816128aa565b9050919050565b60006020820190508181036000830152612c60816128cd565b9050919050565b6000602082019050612c7c60008301846128f0565b92915050565b6000612c8c612c9d565b9050612c988282612f69565b919050565b6000604051905090565b600067ffffffffffffffff821115612cc257612cc16130a1565b5b612ccb826130d0565b9050602081019050919050565b600067ffffffffffffffff821115612cf357612cf26130a1565b5b612cfc826130d0565b9050602081019050919050565b60008190508160005260206000209050919050565b600081519050919050565b600081519050919050565b600082825260208201905092915050565b600081905092915050565b600082825260208201905092915050565b600081905092915050565b6000612d7782612eeb565b9150612d8283612eeb565b9250827fffffffffffffffffffffffffffffffffffffffffffffffffffffffffffffffff03821115612db757612db6613014565b5b828201905092915050565b6000612dcd82612eeb565b9150612dd883612eeb565b925082612de857612de7613043565b5b828204905092915050565b6000612dfe82612eeb565b9150612e0983612eeb565b9250817fffffffffffffffffffffffffffffffffffffffffffffffffffffffffffffffff0483118215151615612e4257612e41613014565b5b828202905092915050565b6000612e5882612eeb565b9150612e6383612eeb565b925082821015612e7657612e75613014565b5b828203905092915050565b6000612e8c82612ecb565b9050919050565b60008115159050919050565b60007fffffffff0000000000000000000000000000000000000000000000000000000082169050919050565b600073ffffffffffffffffffffffffffffffffffffffff82169050919050565b6000819050919050565b82818337600083830152505050565b60005b83811015612f22578082015181840152602081019050612f07565b83811115612f31576000848401525b50505050565b60006002820490506001821680612f4f57607f821691505b60208210811415612f6357612f62613072565b5b50919050565b612f72826130d0565b810181811067ffffffffffffffff82111715612f9157612f906130a1565b5b80604052505050565b6000612fa582612eeb565b91507fffffffffffffffffffffffffffffffffffffffffffffffffffffffffffffffff821415612fd857612fd7613014565b5b600182019050919050565b6000612fee82612eeb565b9150612ff983612eeb565b92508261300957613008613043565b5b828206905092915050565b7f4e487b7100000000000000000000000000000000000000000000000000000000600052601160045260246000fd5b7f4e487b7100000000000000000000000000000000000000000000000000000000600052601260045260246000fd5b7f4e487b7100000000000000000000000000000000000000000000000000000000600052602260045260246000fd5b7f4e487b7100000000000000000000000000000000000000000000000000000000600052604160045260246000fd5b6000601f19601f8301169050919050565b7f4552433732313a207472616e7366657220746f206e6f6e20455243373231526560008201527f63656976657220696d706c656d656e7465720000000000000000000000000000602082015250565b7f4f776e61626c653a206e6577206f776e657220697320746865207a65726f206160008201527f6464726573730000000000000000000000000000000000000000000000000000602082015250565b7f4552433732313a207472616e736665722066726f6d20696e636f72726563742060008201527f6f776e6572000000000000000000000000000000000000000000000000000000602082015250565b7f4552433732313a20746f6b656e20616c7265616479206d696e74656400000000600082015250565b7f5769746864726177206661696c65640000000000000000000000000000000000600082015250565b7f4e6f7420656e6f75676820657468657220746f206d696e740000000000000000600082015250565b7f4552433732313a207472616e7366657220746f20746865207a65726f2061646460008201527f7265737300000000000000000000000000000000000000000000000000000000602082015250565b7f4552433732313a20617070726f766520746f2063616c6c657200000000000000600082015250565b7f5075626c6963206d696e74696e67206e6f7420656e61626c6564000000000000600082015250565b7f4552433732313a2061646472657373207a65726f206973206e6f74206120766160008201527f6c6964206f776e65720000000000000000000000000000000000000000000000602082015250565b7f6d696e7420616d6f756e74206d7573742062652067726561746572207468616e60008201527f2030000000000000000000000000000000000000000000000000000000000000602082015250565b7f6d617820737570706c7920726561636865640000000000000000000000000000600082015250565b7f4552433732313a20617070726f76652063616c6c6572206973206e6f7420746f60008201527f6b656e206f776e6572206e6f7220617070726f76656420666f7220616c6c0000602082015250565b7f4552433732313a206d696e7420746f20746865207a65726f2061646472657373600082015250565b7f2e6a736f6e000000000000000000000000000000000000000000000000000000600082015250565b7f596f752068617665207265616368656420746865206d6178206d696e7420616d60008201527f6f756e7400000000000000000000000000000000000000000000000000000000602082015250565b7f4f776e61626c653a2063616c6c6572206973206e6f7420746865206f776e6572600082015250565b7f4552433732313a20696e76616c696420746f6b656e2049440000000000000000600082015250565b7f4552433732313a20617070726f76616c20746f2063757272656e74206f776e6560008201527f7200000000000000000000000000000000000000000000000000000000000000602082015250565b50565b7f6d616b696e672055524920717565727920666f72206e6f6e6578697374656e7460008201527f20746f6b656e0000000000000000000000000000000000000000000000000000602082015250565b7f4552433732313a2063616c6c6572206973206e6f7420746f6b656e206f776e6560008201527f72206e6f7220617070726f766564000000000000000000000000000000000000602082015250565b6135ec81612e81565b81146135f757600080fd5b50565b61360381612e93565b811461360e57600080fd5b50565b61361a81612e9f565b811461362557600080fd5b50565b61363181612eeb565b811461363c57600080fd5b5056fea2646970667358221220b5d37faa498f9548ddd54c714c2e7f5323d5f8e90fa3158b56388ffe2be1e05d64736f6c63430008040033",
  "linkReferences": {},
  "deployedLinkReferences": {}
}